{
  "contractName": "MainShip",
  "abi": [
    {
      "constant": true,
      "inputs": [
        {
          "name": "",
          "type": "address"
        }
      ],
      "name": "gamersQueue",
      "outputs": [
        {
          "name": "amountBet",
          "type": "uint256"
        },
        {
          "name": "numberSelected",
          "type": "uint256"
        }
      ],
      "payable": false,
      "stateMutability": "view",
      "type": "function"
    },
    {
      "constant": true,
      "inputs": [],
      "name": "owner",
      "outputs": [
        {
          "name": "",
          "type": "address"
        }
      ],
      "payable": false,
      "stateMutability": "view",
      "type": "function"
    },
    {
      "inputs": [],
      "payable": false,
      "stateMutability": "nonpayable",
      "type": "constructor"
    },
    {
      "constant": false,
      "inputs": [
        {
          "name": "_coCount",
          "type": "uint256[]"
        }
      ],
      "name": "reqNewGame",
      "outputs": [],
      "payable": true,
      "stateMutability": "payable",
      "type": "function"
    },
    {
      "constant": true,
      "inputs": [],
      "name": "getCount",
      "outputs": [
        {
          "name": "",
          "type": "uint256"
        }
      ],
      "payable": false,
      "stateMutability": "view",
      "type": "function"
    }
  ],
  "bytecode": "0x608060405234801561001057600080fd5b5060018054600160a060020a031916331781556000805480830182558180526104007f290decd9548b62a8d60345a988386fc84ba6bc95484008f6362f93160ef3e56391820155815480840183556103ff9082015581549283019091556103fe910155610240806100826000396000f3006080604052600436106100615763ffffffff7c01000000000000000000000000000000000000000000000000000000006000350416633d051e3881146100665780635ad4c542146100ad5780638da5cb5b146100f7578063a87d942c14610135575b600080fd5b34801561007257600080fd5b5061009473ffffffffffffffffffffffffffffffffffffffff6004351661015c565b6040805192835260208301919091528051918290030190f35b604080516020600480358082013583810280860185019096528085526100f5953695939460249493850192918291850190849080828437509497506101759650505050505050565b005b34801561010357600080fd5b5061010c61018c565b6040805173ffffffffffffffffffffffffffffffffffffffff9092168252519081900360200190f35b34801561014157600080fd5b5061014a6101a8565b60408051918252519081900360200190f35b6002602052600090815260409020805460019091015482565b80516101889060009060208401906101af565b5050565b60015473ffffffffffffffffffffffffffffffffffffffff1681565b6000545b90565b8280548282559060005260206000209081019282156101ea579160200282015b828111156101ea5782518255916020019190600101906101cf565b506101f69291506101fa565b5090565b6101ac91905b808211156101f657600081556001016102005600a165627a7a723058207ad31ac7a223795068f95b1e7ce3f07f791360279bbb0576897b0913dc2d63990029",
  "source": "pragma solidity ^0.4.24;\r\n\r\ncontract MainShip {\r\n\r\n   uint[] coCount;\r\n\r\n   address public owner;\r\n\r\n   mapping(address => InitData) public gamersQueue;\r\n\r\n   struct InitData {\r\n        uint256 amountBet;\r\n        uint256 numberSelected;\r\n    }\r\n\r\n   // конструктор\r\n   constructor() public {\r\n      owner = msg.sender;\r\n\r\n      coCount.push(1024);\r\n      coCount.push(1023);\r\n      coCount.push(1022);\r\n   }\r\n\r\n   //function IsPlayerExists() public constant returns(bool) {\r\n   //   return gamersQueue[msg.sender];\r\n   //}\r\n\r\n   // запрос на начало новой игры\r\n   function reqNewGame(uint[] _coCount) public payable {\r\n      coCount = _coCount;\r\n      //require(IsPlayerExists);\r\n   }\r\n\r\n   function getCount() public constant returns(uint)  {\r\n      return coCount.length;\r\n   }\r\n\r\n\r\n}\r\n",
  "sourcePath": "/Users/mac/Documents/GitHub/Eth-Ship-Battle/ship-buttle/contracts/MainShip.sol",
  "compiler": {
    "name": "solc",
    "version": "0.4.24+commit.e67f0147.Emscripten.clang"
  },
  "schemaVersion": "2.0.1",
  "updatedAt": "2018-08-10T19:09:30.437Z"
}