{
  "contractName": "MainShip",
  "abi": [
    {
      "constant": true,
      "inputs": [
        {
          "name": "",
          "type": "address"
        }
      ],
      "name": "gamerData",
      "outputs": [
        {
          "name": "stateHash",
          "type": "uint256"
        },
        {
          "name": "beat",
          "type": "uint256"
        }
      ],
      "payable": false,
      "stateMutability": "view",
      "type": "function"
    },
    {
      "constant": true,
      "inputs": [],
      "name": "owner",
      "outputs": [
        {
          "name": "",
          "type": "address"
        }
      ],
      "payable": false,
      "stateMutability": "view",
      "type": "function"
    },
    {
      "inputs": [],
      "payable": false,
      "stateMutability": "nonpayable",
      "type": "constructor"
    },
    {
      "constant": false,
      "inputs": [
        {
          "name": "_stateHash",
          "type": "uint256"
        },
        {
          "name": "_beat",
          "type": "uint256"
        }
      ],
      "name": "initNewGame",
      "outputs": [],
      "payable": true,
      "stateMutability": "payable",
      "type": "function"
    },
    {
      "constant": false,
      "inputs": [
        {
          "name": "_coCount",
          "type": "uint256[]"
        }
      ],
      "name": "reqNewGame",
      "outputs": [],
      "payable": true,
      "stateMutability": "payable",
      "type": "function"
    },
    {
      "constant": true,
      "inputs": [],
      "name": "getCount",
      "outputs": [
        {
          "name": "",
          "type": "uint256"
        }
      ],
      "payable": false,
      "stateMutability": "view",
      "type": "function"
    }
  ],
  "bytecode": "0x608060405234801561001057600080fd5b5060008054600160a060020a03191633178155600180548082018255918190526104007fb10e2d527612073b26eecdfd717e6a320cf44b4afac2b0732d9fcbe2b7fa0cf692830155805480820182556103ff9083015580548082019091556103fe910155610264806100836000396000f30060806040526004361061006c5763ffffffff7c01000000000000000000000000000000000000000000000000000000006000350416635ad4c54281146100715780638a4cc832146100bb5780638da5cb5b14610102578063a87d942c14610140578063cf65f74d14610167575b600080fd5b604080516020600480358082013583810280860185019096528085526100b9953695939460249493850192918291850190849080828437509497506101759650505050505050565b005b3480156100c757600080fd5b506100e973ffffffffffffffffffffffffffffffffffffffff6004351661018c565b6040805192835260208301919091528051918290030190f35b34801561010e57600080fd5b506101176101a5565b6040805173ffffffffffffffffffffffffffffffffffffffff9092168252519081900360200190f35b34801561014c57600080fd5b506101556101c1565b60408051918252519081900360200190f35b6100b96004356024356101c8565b80516101889060019060208401906101d3565b5050565b6002602052600090815260409020805460019091015482565b60005473ffffffffffffffffffffffffffffffffffffffff1681565b6001545b90565b600091909155600155565b82805482825590600052602060002090810192821561020e579160200282015b8281111561020e5782518255916020019190600101906101f3565b5061021a92915061021e565b5090565b6101c591905b8082111561021a57600081556001016102245600a165627a7a723058207dadde5723f59194057eb0af21fd7c1b9bcba7288d1b9c28b0f219709e2cddf70029",
  "source": "pragma solidity ^0.4.24;\r\n\r\ncontract MainShip {\r\n    address public owner;\r\n    uint[] coCount;\r\n\r\n    struct GamerInitData {\r\n        uint stateHash;\r\n        uint beat;        \r\n    }\r\n\r\n    mapping(address => GamerInitData) public gamerData;\r\n    \r\n    // конструктор\r\n    constructor() public {\r\n        owner = msg.sender;\r\n\r\n        coCount.push(1024);\r\n        coCount.push(1023);\r\n        coCount.push(1022);\r\n    }\r\n\r\n   //function IsPlayerExists() public constant returns(bool) {\r\n   //   return gamersQueue[msg.sender];\r\n   //}\r\n\r\n    function initNewGame(uint _stateHash, uint _beat) public payable {\r\n        GamerInitData storage init;\r\n\r\n        init.stateHash = _stateHash;\r\n        init.beat = _beat;        \r\n    }\r\n\r\n\r\n    // запрос на начало новой игры\r\n    function reqNewGame(uint[] _coCount) public payable {\r\n        coCount = _coCount;\r\n        //require(IsPlayerExists);\r\n    }\r\n\r\n    function getCount() public view returns(uint){\r\n        return coCount.length;\r\n    }\r\n}",
  "sourcePath": "/Users/mac/Documents/GitHub/Eth-Ship-Battle/ship-buttle/contracts/MainShip.sol",
  "compiler": {
    "name": "solc",
    "version": "0.4.24+commit.e67f0147.Emscripten.clang"
  },
  "schemaVersion": "2.0.1",
  "updatedAt": "2018-08-23T21:06:37.301Z"
}