{
  "contractName": "MainShip",
  "abi": [
    {
      "constant": true,
      "inputs": [],
      "name": "owner",
      "outputs": [
        {
          "name": "",
          "type": "address"
        }
      ],
      "payable": false,
      "stateMutability": "view",
      "type": "function"
    },
    {
      "inputs": [],
      "payable": false,
      "stateMutability": "nonpayable",
      "type": "constructor"
    },
    {
      "constant": false,
      "inputs": [
        {
          "name": "_stateHash",
          "type": "uint256"
        },
        {
          "name": "_bet",
          "type": "uint256"
        }
      ],
      "name": "initNewGame",
      "outputs": [],
      "payable": true,
      "stateMutability": "payable",
      "type": "function"
    },
    {
      "constant": true,
      "inputs": [],
      "name": "getCount",
      "outputs": [
        {
          "name": "",
          "type": "uint256"
        }
      ],
      "payable": false,
      "stateMutability": "view",
      "type": "function"
    }
  ],
  "bytecode": "0x608060405234801561001057600080fd5b5060008054600160a060020a031916331790556104bc806100326000396000f3006080604052600436106100565763ffffffff7c01000000000000000000000000000000000000000000000000000000006000350416638da5cb5b811461005b578063a87d942c14610099578063cf65f74d146100c0575b600080fd5b34801561006757600080fd5b506100706100d0565b6040805173ffffffffffffffffffffffffffffffffffffffff9092168252519081900360200190f35b3480156100a557600080fd5b506100ae6100ec565b60408051918252519081900360200190f35b6100ce6004356024356100f2565b005b60005473ffffffffffffffffffffffffffffffffffffffff1681565b60015490565b600081116101ad57604080517f08c379a000000000000000000000000000000000000000000000000000000000815260206004820152604560248201527fd0a0d0b0d0b7d0bcd0b5d18020d181d182d0b0d0b2d0bad0b820d0b4d0bed0bb60448201527fd0b6d0b5d0bd20d0b1d18bd182d18c20d0b1d0bed0bbd18cd188d0b520d0bdd160648201527f83d0bbd18f000000000000000000000000000000000000000000000000000000608482015290519081900360a40190fd5b6001805416156102bc5760408051606081018252338082526020808301868152838501868152600180548082018255600082815296517fb10e2d527612073b26eecdfd717e6a320cf44b4afac2b0732d9fcbe2b7fa0cf66003909202918201805473ffffffffffffffffffffffffffffffffffffffff191673ffffffffffffffffffffffffffffffffffffffff90921691909117905592517fb10e2d527612073b26eecdfd717e6a320cf44b4afac2b0732d9fcbe2b7fa0cf784015590517fb10e2d527612073b26eecdfd717e6a320cf44b4afac2b0732d9fcbe2b7fa0cf89092019190915591835260028152928220815481549283018255908352929091206000199290920191015561048c565b6001805433919060001981019081106102d157fe5b600091825260209091206003909102015473ffffffffffffffffffffffffffffffffffffffff16141561038b57604080517f08c379a000000000000000000000000000000000000000000000000000000000815260206004820152603460248201527fd09dd0b5d0bbd18cd0b7d18f20d0b8d0b3d180d0b0d182d18c20d181d0b0d0bc60448201527fd0bed0bcd18320d18120d181d0bed0b1d0bed0b9000000000000000000000000606482015290519081900360840190fd5b60408051606081018252338082526020808301868152838501868152600180548082018255600082815296517fb10e2d527612073b26eecdfd717e6a320cf44b4afac2b0732d9fcbe2b7fa0cf66003909202918201805473ffffffffffffffffffffffffffffffffffffffff191673ffffffffffffffffffffffffffffffffffffffff90921691909117905592517fb10e2d527612073b26eecdfd717e6a320cf44b4afac2b0732d9fcbe2b7fa0cf784015590517fb10e2d527612073b26eecdfd717e6a320cf44b4afac2b0732d9fcbe2b7fa0cf8909201919091559183526002815292822081548154928301825590835292909120600019929092019101555b50505600a165627a7a72305820e8e9934b95e46022d2fe819943fd997e5152fe53a77efa0117296f40ac9df6620029",
  "source": "pragma solidity ^0.4.24;\r\n\r\ncontract MainShip {\r\n    address public owner;\r\n        \r\n    GamerData[] gameList;\r\n    mapping(address => uint[]) idxGamer;\r\n    \r\n    // игровые данные участника\r\n    struct GamerData {\r\n        address addr;\r\n        uint stateHash; // хешь от суммы цифр которые обозначают данные по каждому кораблю игрока\r\n        uint bet;      // размер ставки игрока   \r\n        //bool inGame; \r\n    }\r\n    \r\n    // конструктор\r\n    constructor() public {\r\n        owner = msg.sender;\r\n        \r\n        // require(owner != address(0), \"\");\r\n    }\r\n    \r\n    // обрабатываем входящий запрос на начало игры\r\n    function initNewGame(uint _stateHash, uint _bet) public payable {\r\n        require(_bet > 0, \"Размер ставки должен быть больше нуля\");\r\n\r\n        // если длина массива четная (свободных игроков нет) добавляем нового игрока в список ожидания\r\n        if(gameList.length % 2 != 0){\r\n            gameList.push(GamerData(msg.sender,  _stateHash, _bet));\r\n            idxGamer[msg.sender].push(gameList.length-1);\r\n        }\r\n        // если нечетное, кто то ждет игры\r\n        else{\r\n            require(gameList[gameList.length-1].addr != msg.sender, \"Нельзя играть самому с собой\");\r\n            // добавляем второго игрока\r\n            gameList.push(GamerData(msg.sender,  _stateHash, _bet));\r\n            idxGamer[msg.sender].push(gameList.length-1);\r\n        }\r\n    }\r\n\r\n\r\n\r\n    \r\n    function getCount() public view returns(uint){\r\n        //if(gameList.length > 0){\r\n        //    //\\return gameList.length;\r\n        //    \r\n        //}\r\n        return gameList.length;\r\n        \r\n    }\r\n    \r\n    \r\n}",
  "sourcePath": "/Users/mac/Documents/GitHub/Eth-Ship-Battle/ship-buttle/contracts/MainShip.sol",
  "compiler": {
    "name": "solc",
    "version": "0.4.24+commit.e67f0147.Emscripten.clang"
  },
  "schemaVersion": "2.0.1",
  "updatedAt": "2018-08-25T14:23:58.522Z"
}